{
  "_format": "hh-sol-artifact-1",
  "contractName": "NFTMarketplace",
  "sourceName": "contracts/NFTMarketplace.sol",
  "abi": [
    {
      "inputs": [],
      "stateMutability": "nonpayable",
      "type": "constructor"
    },
    {
      "anonymous": false,
      "inputs": [
        {
          "indexed": true,
          "internalType": "address",
          "name": "owner",
          "type": "address"
        },
        {
          "indexed": true,
          "internalType": "address",
          "name": "approved",
          "type": "address"
        },
        {
          "indexed": true,
          "internalType": "uint256",
          "name": "tokenId",
          "type": "uint256"
        }
      ],
      "name": "Approval",
      "type": "event"
    },
    {
      "anonymous": false,
      "inputs": [
        {
          "indexed": true,
          "internalType": "address",
          "name": "owner",
          "type": "address"
        },
        {
          "indexed": true,
          "internalType": "address",
          "name": "operator",
          "type": "address"
        },
        {
          "indexed": false,
          "internalType": "bool",
          "name": "approved",
          "type": "bool"
        }
      ],
      "name": "ApprovalForAll",
      "type": "event"
    },
    {
      "anonymous": false,
      "inputs": [
        {
          "indexed": false,
          "internalType": "uint256",
          "name": "id",
          "type": "uint256"
        },
        {
          "indexed": false,
          "internalType": "address",
          "name": "seller",
          "type": "address"
        },
        {
          "indexed": false,
          "internalType": "address",
          "name": "owner",
          "type": "address"
        },
        {
          "indexed": false,
          "internalType": "uint256",
          "name": "price",
          "type": "uint256"
        },
        {
          "indexed": false,
          "internalType": "string",
          "name": "tokenURI",
          "type": "string"
        },
        {
          "indexed": false,
          "internalType": "bool",
          "name": "sold",
          "type": "bool"
        }
      ],
      "name": "MarketItemCreated",
      "type": "event"
    },
    {
      "anonymous": false,
      "inputs": [
        {
          "indexed": true,
          "internalType": "address",
          "name": "from",
          "type": "address"
        },
        {
          "indexed": true,
          "internalType": "address",
          "name": "to",
          "type": "address"
        },
        {
          "indexed": true,
          "internalType": "uint256",
          "name": "tokenId",
          "type": "uint256"
        }
      ],
      "name": "Transfer",
      "type": "event"
    },
    {
      "inputs": [
        {
          "internalType": "address",
          "name": "to",
          "type": "address"
        },
        {
          "internalType": "uint256",
          "name": "tokenId",
          "type": "uint256"
        }
      ],
      "name": "approve",
      "outputs": [],
      "stateMutability": "nonpayable",
      "type": "function"
    },
    {
      "inputs": [
        {
          "internalType": "address",
          "name": "owner",
          "type": "address"
        }
      ],
      "name": "balanceOf",
      "outputs": [
        {
          "internalType": "uint256",
          "name": "",
          "type": "uint256"
        }
      ],
      "stateMutability": "view",
      "type": "function"
    },
    {
      "inputs": [
        {
          "internalType": "uint256",
          "name": "tokenId",
          "type": "uint256"
        }
      ],
      "name": "createMarketSale",
      "outputs": [],
      "stateMutability": "payable",
      "type": "function"
    },
    {
      "inputs": [
        {
          "internalType": "string",
          "name": "tokenURI",
          "type": "string"
        },
        {
          "internalType": "uint256",
          "name": "price",
          "type": "uint256"
        }
      ],
      "name": "createToken",
      "outputs": [
        {
          "internalType": "uint256",
          "name": "",
          "type": "uint256"
        }
      ],
      "stateMutability": "payable",
      "type": "function"
    },
    {
      "inputs": [],
      "name": "fetchItemsListed",
      "outputs": [
        {
          "components": [
            {
              "internalType": "uint256",
              "name": "tokenId",
              "type": "uint256"
            },
            {
              "internalType": "address payable",
              "name": "seller",
              "type": "address"
            },
            {
              "internalType": "address payable",
              "name": "owner",
              "type": "address"
            },
            {
              "internalType": "uint256",
              "name": "price",
              "type": "uint256"
            },
            {
              "internalType": "bool",
              "name": "sold",
              "type": "bool"
            }
          ],
          "internalType": "struct NFTMarketplace.MarketItem[]",
          "name": "",
          "type": "tuple[]"
        }
      ],
      "stateMutability": "view",
      "type": "function"
    },
    {
      "inputs": [],
      "name": "fetchMarketItems",
      "outputs": [
        {
          "components": [
            {
              "internalType": "uint256",
              "name": "tokenId",
              "type": "uint256"
            },
            {
              "internalType": "address payable",
              "name": "seller",
              "type": "address"
            },
            {
              "internalType": "address payable",
              "name": "owner",
              "type": "address"
            },
            {
              "internalType": "uint256",
              "name": "price",
              "type": "uint256"
            },
            {
              "internalType": "bool",
              "name": "sold",
              "type": "bool"
            }
          ],
          "internalType": "struct NFTMarketplace.MarketItem[]",
          "name": "",
          "type": "tuple[]"
        }
      ],
      "stateMutability": "view",
      "type": "function"
    },
    {
      "inputs": [],
      "name": "fetchMyNFTs",
      "outputs": [
        {
          "components": [
            {
              "internalType": "uint256",
              "name": "tokenId",
              "type": "uint256"
            },
            {
              "internalType": "address payable",
              "name": "seller",
              "type": "address"
            },
            {
              "internalType": "address payable",
              "name": "owner",
              "type": "address"
            },
            {
              "internalType": "uint256",
              "name": "price",
              "type": "uint256"
            },
            {
              "internalType": "bool",
              "name": "sold",
              "type": "bool"
            }
          ],
          "internalType": "struct NFTMarketplace.MarketItem[]",
          "name": "",
          "type": "tuple[]"
        }
      ],
      "stateMutability": "view",
      "type": "function"
    },
    {
      "inputs": [
        {
          "internalType": "uint256",
          "name": "tokenId",
          "type": "uint256"
        }
      ],
      "name": "getApproved",
      "outputs": [
        {
          "internalType": "address",
          "name": "",
          "type": "address"
        }
      ],
      "stateMutability": "view",
      "type": "function"
    },
    {
      "inputs": [],
      "name": "getItemsSold",
      "outputs": [
        {
          "internalType": "uint256",
          "name": "",
          "type": "uint256"
        }
      ],
      "stateMutability": "view",
      "type": "function"
    },
    {
      "inputs": [],
      "name": "getListingPrice",
      "outputs": [
        {
          "internalType": "uint256",
          "name": "",
          "type": "uint256"
        }
      ],
      "stateMutability": "view",
      "type": "function"
    },
    {
      "inputs": [],
      "name": "getOwner",
      "outputs": [
        {
          "internalType": "address",
          "name": "",
          "type": "address"
        }
      ],
      "stateMutability": "view",
      "type": "function"
    },
    {
      "inputs": [],
      "name": "getTokenID",
      "outputs": [
        {
          "internalType": "uint256",
          "name": "",
          "type": "uint256"
        }
      ],
      "stateMutability": "view",
      "type": "function"
    },
    {
      "inputs": [
        {
          "internalType": "address",
          "name": "owner",
          "type": "address"
        },
        {
          "internalType": "address",
          "name": "operator",
          "type": "address"
        }
      ],
      "name": "isApprovedForAll",
      "outputs": [
        {
          "internalType": "bool",
          "name": "",
          "type": "bool"
        }
      ],
      "stateMutability": "view",
      "type": "function"
    },
    {
      "inputs": [],
      "name": "name",
      "outputs": [
        {
          "internalType": "string",
          "name": "",
          "type": "string"
        }
      ],
      "stateMutability": "view",
      "type": "function"
    },
    {
      "inputs": [
        {
          "internalType": "uint256",
          "name": "tokenId",
          "type": "uint256"
        }
      ],
      "name": "ownerOf",
      "outputs": [
        {
          "internalType": "address",
          "name": "",
          "type": "address"
        }
      ],
      "stateMutability": "view",
      "type": "function"
    },
    {
      "inputs": [
        {
          "internalType": "uint256",
          "name": "tokenId",
          "type": "uint256"
        },
        {
          "internalType": "uint256",
          "name": "price",
          "type": "uint256"
        }
      ],
      "name": "resellToken",
      "outputs": [],
      "stateMutability": "payable",
      "type": "function"
    },
    {
      "inputs": [
        {
          "internalType": "address",
          "name": "from",
          "type": "address"
        },
        {
          "internalType": "address",
          "name": "to",
          "type": "address"
        },
        {
          "internalType": "uint256",
          "name": "tokenId",
          "type": "uint256"
        }
      ],
      "name": "safeTransferFrom",
      "outputs": [],
      "stateMutability": "nonpayable",
      "type": "function"
    },
    {
      "inputs": [
        {
          "internalType": "address",
          "name": "from",
          "type": "address"
        },
        {
          "internalType": "address",
          "name": "to",
          "type": "address"
        },
        {
          "internalType": "uint256",
          "name": "tokenId",
          "type": "uint256"
        },
        {
          "internalType": "bytes",
          "name": "data",
          "type": "bytes"
        }
      ],
      "name": "safeTransferFrom",
      "outputs": [],
      "stateMutability": "nonpayable",
      "type": "function"
    },
    {
      "inputs": [
        {
          "internalType": "address",
          "name": "operator",
          "type": "address"
        },
        {
          "internalType": "bool",
          "name": "approved",
          "type": "bool"
        }
      ],
      "name": "setApprovalForAll",
      "outputs": [],
      "stateMutability": "nonpayable",
      "type": "function"
    },
    {
      "inputs": [
        {
          "internalType": "bytes4",
          "name": "interfaceId",
          "type": "bytes4"
        }
      ],
      "name": "supportsInterface",
      "outputs": [
        {
          "internalType": "bool",
          "name": "",
          "type": "bool"
        }
      ],
      "stateMutability": "view",
      "type": "function"
    },
    {
      "inputs": [],
      "name": "symbol",
      "outputs": [
        {
          "internalType": "string",
          "name": "",
          "type": "string"
        }
      ],
      "stateMutability": "view",
      "type": "function"
    },
    {
      "inputs": [
        {
          "internalType": "uint256",
          "name": "tokenId",
          "type": "uint256"
        }
      ],
      "name": "tokenURI",
      "outputs": [
        {
          "internalType": "string",
          "name": "",
          "type": "string"
        }
      ],
      "stateMutability": "view",
      "type": "function"
    },
    {
      "inputs": [
        {
          "internalType": "address",
          "name": "from",
          "type": "address"
        },
        {
          "internalType": "address",
          "name": "to",
          "type": "address"
        },
        {
          "internalType": "uint256",
          "name": "tokenId",
          "type": "uint256"
        }
      ],
      "name": "transferFrom",
      "outputs": [],
      "stateMutability": "nonpayable",
      "type": "function"
    },
    {
      "inputs": [
        {
          "internalType": "uint256",
          "name": "_listingPrice",
          "type": "uint256"
        }
      ],
      "name": "updateListingPrice",
      "outputs": [],
      "stateMutability": "payable",
      "type": "function"
    }
  ],
  "bytecode": "0x60806040526658d15e176280006009553480156200001c57600080fd5b5060408051808201825260078152664e46545a4f4e4560c81b6020808301918252835180850190945260038452624e5a4560e81b908401528151919291620000679160009162000098565b5080516200007d90600190602084019062000098565b5050600a80546001600160a01b03191633179055506200017b565b828054620000a6906200013e565b90600052602060002090601f016020900481019282620000ca576000855562000115565b82601f10620000e557805160ff191683800117855562000115565b8280016001018555821562000115579182015b8281111562000115578251825591602001919060010190620000f8565b506200012392915062000127565b5090565b5b8082111562000123576000815560010162000128565b600181811c908216806200015357607f821691505b602082108114156200017557634e487b7160e01b600052602260045260246000fd5b50919050565b61229c806200018b6000396000f3fe60806040526004361061014b5760003560e01c806370a08231116100b6578063b88d4fde1161006f578063b88d4fde1461037a578063be9af5361461039a578063c4b15141146103ad578063c87b56dd146103c2578063e219fc75146103e2578063e985e9c5146103f557600080fd5b806370a08231146102e157806372b3b62014610301578063893d20e81461031457806395d89b4114610332578063a22cb46514610347578063ae677aa31461036757600080fd5b8063202e374011610108578063202e37401461024257806323b872dd1461025757806342842e0e1461027757806345f8fa80146102975780636352211e146102ac5780636ba367a3146102cc57600080fd5b806301ffc9a71461015057806306fdde0314610185578063081812fc146101a7578063095ea7b3146101df5780630f08efe01461020157806312e8558514610223575b600080fd5b34801561015c57600080fd5b5061017061016b366004611c10565b61043e565b60405190151581526020015b60405180910390f35b34801561019157600080fd5b5061019a610490565b60405161017c9190611c85565b3480156101b357600080fd5b506101c76101c2366004611c98565b610522565b6040516001600160a01b03909116815260200161017c565b3480156101eb57600080fd5b506101ff6101fa366004611ccd565b610549565b005b34801561020d57600080fd5b50610216610664565b60405161017c9190611cf7565b34801561022f57600080fd5b506009545b60405190815260200161017c565b34801561024e57600080fd5b506102166107fc565b34801561026357600080fd5b506101ff610272366004611d73565b6109d2565b34801561028357600080fd5b506101ff610292366004611d73565b610a03565b3480156102a357600080fd5b50610216610a1e565b3480156102b857600080fd5b506101c76102c7366004611c98565b610bf4565b3480156102d857600080fd5b50610234610c54565b3480156102ed57600080fd5b506102346102fc366004611daf565b610c64565b61023461030f366004611e56565b610cea565b34801561032057600080fd5b50600a546001600160a01b03166101c7565b34801561033e57600080fd5b5061019a610d2d565b34801561035357600080fd5b506101ff610362366004611eaf565b610d3c565b6101ff610375366004611c98565b610d4b565b34801561038657600080fd5b506101ff610395366004611eeb565b610dc3565b6101ff6103a8366004611c98565b610dfb565b3480156103b957600080fd5b50610234610f60565b3480156103ce57600080fd5b5061019a6103dd366004611c98565b610f6b565b6101ff6103f0366004611f67565b61107c565b34801561040157600080fd5b50610170610410366004611f89565b6001600160a01b03918216600090815260056020908152604080832093909416825291909152205460ff1690565b60006001600160e01b031982166380ac58cd60e01b148061046f57506001600160e01b03198216635b5e139f60e01b145b8061048a57506301ffc9a760e01b6001600160e01b03198316145b92915050565b60606000805461049f90611fbc565b80601f01602080910402602001604051908101604052809291908181526020018280546104cb90611fbc565b80156105185780601f106104ed57610100808354040283529160200191610518565b820191906000526020600020905b8154815290600101906020018083116104fb57829003601f168201915b5050505050905090565b600061052d82611174565b506000908152600460205260409020546001600160a01b031690565b600061055482610bf4565b9050806001600160a01b0316836001600160a01b031614156105c75760405162461bcd60e51b815260206004820152602160248201527f4552433732313a20617070726f76616c20746f2063757272656e74206f776e656044820152603960f91b60648201526084015b60405180910390fd5b336001600160a01b03821614806105e357506105e38133610410565b6106555760405162461bcd60e51b815260206004820152603e60248201527f4552433732313a20617070726f76652063616c6c6572206973206e6f7420746f60448201527f6b656e206f776e6572206e6f7220617070726f76656420666f7220616c6c000060648201526084016105be565b61065f83836111d6565b505050565b6060600061067160075490565b9050600061067e60085490565b60075461068b919061200d565b90506000808267ffffffffffffffff8111156106a9576106a9611dca565b60405190808252806020026020018201604052801561070257816020015b6040805160a0810182526000808252602080830182905292820181905260608201819052608082015282526000199092019101816106c75790505b50905060005b848110156107f35730600b6000610720846001612024565b81526020810191909152604001600020600201546001600160a01b031614156107e1576000610750826001612024565b6000818152600b6020908152604091829020825160a0810184528154815260018201546001600160a01b039081169382019390935260028201549092169282019290925260038201546060820152600482015460ff1615156080820152855192935090918590879081106107c6576107c661203c565b60209081029190910101526107dc600186612024565b945050505b806107eb81612052565b915050610708565b50949350505050565b6060600061080960075490565b905060008060005b8381101561086c5733600b6000610829846001612024565b81526020810191909152604001600020600201546001600160a01b0316141561085a57610857600184612024565b92505b8061086481612052565b915050610811565b5060008267ffffffffffffffff81111561088857610888611dca565b6040519080825280602002602001820160405280156108e157816020015b6040805160a0810182526000808252602080830182905292820181905260608201819052608082015282526000199092019101816108a65790505b50905060005b848110156107f35733600b60006108ff846001612024565b81526020810191909152604001600020600201546001600160a01b031614156109c057600061092f826001612024565b6000818152600b6020908152604091829020825160a0810184528154815260018201546001600160a01b039081169382019390935260028201549092169282019290925260038201546060820152600482015460ff1615156080820152855192935090918590879081106109a5576109a561203c565b60209081029190910101526109bb600186612024565b945050505b806109ca81612052565b9150506108e7565b6109dc3382611244565b6109f85760405162461bcd60e51b81526004016105be9061206d565b61065f8383836112c2565b61065f83838360405180602001604052806000815250610dc3565b60606000610a2b60075490565b905060008060005b83811015610a8e5733600b6000610a4b846001612024565b81526020810191909152604001600020600101546001600160a01b03161415610a7c57610a79600184612024565b92505b80610a8681612052565b915050610a33565b5060008267ffffffffffffffff811115610aaa57610aaa611dca565b604051908082528060200260200182016040528015610b0357816020015b6040805160a081018252600080825260208083018290529282018190526060820181905260808201528252600019909201910181610ac85790505b50905060005b848110156107f35733600b6000610b21846001612024565b81526020810191909152604001600020600101546001600160a01b03161415610be2576000610b51826001612024565b6000818152600b6020908152604091829020825160a0810184528154815260018201546001600160a01b039081169382019390935260028201549092169282019290925260038201546060820152600482015460ff161515608082015285519293509091859087908110610bc757610bc761203c565b6020908102919091010152610bdd600186612024565b945050505b80610bec81612052565b915050610b09565b6000818152600260205260408120546001600160a01b03168061048a5760405162461bcd60e51b8152602060048201526018602482015277115490cdcc8c4e881a5b9d985b1a59081d1bdad95b88125160421b60448201526064016105be565b6000610c5f60075490565b905090565b60006001600160a01b038216610cce5760405162461bcd60e51b815260206004820152602960248201527f4552433732313a2061646472657373207a65726f206973206e6f7420612076616044820152683634b21037bbb732b960b91b60648201526084016105be565b506001600160a01b031660009081526003602052604090205490565b6000610cfa600780546001019055565b6000610d0560075490565b9050610d11338261145e565b610d1b81856115a0565b610d2681848661163a565b9392505050565b60606001805461049f90611fbc565b610d4733838361178a565b5050565b600a546001600160a01b03163314610dbe5760405162461bcd60e51b815260206004820152603060248201527f4f6e6c79206d61726b6574706c616365206f776e65722063616e20757064617460448201526f32903634b9ba34b73390383934b1b29760811b60648201526084016105be565b600955565b610dcd3383611244565b610de95760405162461bcd60e51b81526004016105be9061206d565b610df584848484611859565b50505050565b6000818152600b6020526040902060038101546001909101546001600160a01b0316348214610e94576040805162461bcd60e51b81526020600482015260248101919091527f506c65617365207375626d6974207468652061736b696e67207072696365206960448201527f6e206f7264657220746f20636f6d706c6574652074686520707572636861736560648201526084016105be565b6000838152600b602052604090206002810180546001600160a01b0319908116331790915560048201805460ff1916600190811790915590910180549091169055610ee3600880546001019055565b610eee3033856112c2565b600a546009546040516001600160a01b039092169181156108fc0291906000818181858888f19350505050158015610f2a573d6000803e3d6000fd5b506040516001600160a01b038216903480156108fc02916000818181858888f19350505050158015610df5573d6000803e3d6000fd5b6000610c5f60085490565b6060610f7682611174565b60008281526006602052604081208054610f8f90611fbc565b80601f0160208091040260200160405190810160405280929190818152602001828054610fbb90611fbc565b80156110085780601f10610fdd57610100808354040283529160200191611008565b820191906000526020600020905b815481529060010190602001808311610feb57829003601f168201915b50505050509050600061102660408051602081019091526000815290565b9050805160001415611039575092915050565b81511561106b5780826040516020016110539291906120bb565b60405160208183030381529060405292505050919050565b6110748461188c565b949350505050565b6000828152600b60205260409020600201546001600160a01b031633146110f85760405162461bcd60e51b815260206004820152602a60248201527f4f6e6c79206974656d206f776e65722063616e20706572666f726d20746869736044820152691037b832b930ba34b7b760b11b60648201526084016105be565b60095434146111195760405162461bcd60e51b81526004016105be906120ea565b6000828152600b6020526040902060048101805460ff19169055600381018290556001810180546001600160a01b03199081163317909155600290910180549091163017905561116960086118ff565b610d473330846112c2565b6000818152600260205260409020546001600160a01b03166111d35760405162461bcd60e51b8152602060048201526018602482015277115490cdcc8c4e881a5b9d985b1a59081d1bdad95b88125160421b60448201526064016105be565b50565b600081815260046020526040902080546001600160a01b0319166001600160a01b038416908117909155819061120b82610bf4565b6001600160a01b03167f8c5be1e5ebec7d5bd14f71427d1e84f3dd0314c0f7b2291e5b200ac8c7c3b92560405160405180910390a45050565b60008061125083610bf4565b9050806001600160a01b0316846001600160a01b0316148061129757506001600160a01b0380821660009081526005602090815260408083209388168352929052205460ff165b806110745750836001600160a01b03166112b084610522565b6001600160a01b031614949350505050565b826001600160a01b03166112d582610bf4565b6001600160a01b0316146113395760405162461bcd60e51b815260206004820152602560248201527f4552433732313a207472616e736665722066726f6d20696e636f72726563742060448201526437bbb732b960d91b60648201526084016105be565b6001600160a01b03821661139b5760405162461bcd60e51b8152602060048201526024808201527f4552433732313a207472616e7366657220746f20746865207a65726f206164646044820152637265737360e01b60648201526084016105be565b6113a66000826111d6565b6001600160a01b03831660009081526003602052604081208054600192906113cf90849061200d565b90915550506001600160a01b03821660009081526003602052604081208054600192906113fd908490612024565b909155505060008181526002602052604080822080546001600160a01b0319166001600160a01b0386811691821790925591518493918716917fddf252ad1be2c89b69c2b068fc378daa952ba7f163c4a11628f55a4df523b3ef91a4505050565b6001600160a01b0382166114b45760405162461bcd60e51b815260206004820181905260248201527f4552433732313a206d696e7420746f20746865207a65726f206164647265737360448201526064016105be565b6000818152600260205260409020546001600160a01b0316156115195760405162461bcd60e51b815260206004820152601c60248201527f4552433732313a20746f6b656e20616c7265616479206d696e7465640000000060448201526064016105be565b6001600160a01b0382166000908152600360205260408120805460019290611542908490612024565b909155505060008181526002602052604080822080546001600160a01b0319166001600160a01b03861690811790915590518392907fddf252ad1be2c89b69c2b068fc378daa952ba7f163c4a11628f55a4df523b3ef908290a45050565b6000828152600260205260409020546001600160a01b031661161b5760405162461bcd60e51b815260206004820152602e60248201527f45524337323155524953746f726167653a2055524920736574206f66206e6f6e60448201526d32bc34b9ba32b73a103a37b5b2b760911b60648201526084016105be565b6000828152600660209081526040909120825161065f92840190611b61565b6000821161168a5760405162461bcd60e51b815260206004820152601c60248201527f5072696365206d757374206265206174206c656173742031207765690000000060448201526064016105be565b60095434146116ab5760405162461bcd60e51b81526004016105be906120ea565b6040805160a08101825284815233602080830182815230848601818152606086018981526000608088018181528c8252600b909652979097209551865591516001860180546001600160a01b03199081166001600160a01b0393841617909155925160028701805490941691161790915593516003840155516004909201805460ff19169215159290921790915561174391856112c2565b7fe4958780fe3b3f0505e410985e1047d8533d6d15ac3fb1c69558c491ed1f99658333308585600060405161177d9695949392919061212e565b60405180910390a1505050565b816001600160a01b0316836001600160a01b031614156117ec5760405162461bcd60e51b815260206004820152601960248201527f4552433732313a20617070726f766520746f2063616c6c65720000000000000060448201526064016105be565b6001600160a01b03838116600081815260056020908152604080832094871680845294825291829020805460ff191686151590811790915591519182527f17307eab39ab6107e8899845ad3d59bd9653f200f220920489ca2b5937696c31910160405180910390a3505050565b6118648484846112c2565b61187084848484611956565b610df55760405162461bcd60e51b81526004016105be9061217c565b606061189782611174565b60006118ae60408051602081019091526000815290565b905060008151116118ce5760405180602001604052806000815250610d26565b806118d884611a63565b6040516020016118e99291906120bb565b6040516020818303038152906040529392505050565b80548061194e5760405162461bcd60e51b815260206004820152601b60248201527f436f756e7465723a2064656372656d656e74206f766572666c6f77000000000060448201526064016105be565b600019019055565b60006001600160a01b0384163b15611a5857604051630a85bd0160e11b81526001600160a01b0385169063150b7a029061199a9033908990889088906004016121ce565b602060405180830381600087803b1580156119b457600080fd5b505af19250505080156119e4575060408051601f3d908101601f191682019092526119e19181019061220b565b60015b611a3e573d808015611a12576040519150601f19603f3d011682016040523d82523d6000602084013e611a17565b606091505b508051611a365760405162461bcd60e51b81526004016105be9061217c565b805181602001fd5b6001600160e01b031916630a85bd0160e11b149050611074565b506001949350505050565b606081611a875750506040805180820190915260018152600360fc1b602082015290565b8160005b8115611ab15780611a9b81612052565b9150611aaa9050600a8361223e565b9150611a8b565b60008167ffffffffffffffff811115611acc57611acc611dca565b6040519080825280601f01601f191660200182016040528015611af6576020820181803683370190505b5090505b841561107457611b0b60018361200d565b9150611b18600a86612252565b611b23906030612024565b60f81b818381518110611b3857611b3861203c565b60200101906001600160f81b031916908160001a905350611b5a600a8661223e565b9450611afa565b828054611b6d90611fbc565b90600052602060002090601f016020900481019282611b8f5760008555611bd5565b82601f10611ba857805160ff1916838001178555611bd5565b82800160010185558215611bd5579182015b82811115611bd5578251825591602001919060010190611bba565b50611be1929150611be5565b5090565b5b80821115611be15760008155600101611be6565b6001600160e01b0319811681146111d357600080fd5b600060208284031215611c2257600080fd5b8135610d2681611bfa565b60005b83811015611c48578181015183820152602001611c30565b83811115610df55750506000910152565b60008151808452611c71816020860160208601611c2d565b601f01601f19169290920160200192915050565b602081526000610d266020830184611c59565b600060208284031215611caa57600080fd5b5035919050565b80356001600160a01b0381168114611cc857600080fd5b919050565b60008060408385031215611ce057600080fd5b611ce983611cb1565b946020939093013593505050565b602080825282518282018190526000919060409081850190868401855b82811015611d6657815180518552868101516001600160a01b03908116888701528682015116868601526060808201519086015260809081015115159085015260a09093019290850190600101611d14565b5091979650505050505050565b600080600060608486031215611d8857600080fd5b611d9184611cb1565b9250611d9f60208501611cb1565b9150604084013590509250925092565b600060208284031215611dc157600080fd5b610d2682611cb1565b634e487b7160e01b600052604160045260246000fd5b600067ffffffffffffffff80841115611dfb57611dfb611dca565b604051601f8501601f19908116603f01168101908282118183101715611e2357611e23611dca565b81604052809350858152868686011115611e3c57600080fd5b858560208301376000602087830101525050509392505050565b60008060408385031215611e6957600080fd5b823567ffffffffffffffff811115611e8057600080fd5b8301601f81018513611e9157600080fd5b611ea085823560208401611de0565b95602094909401359450505050565b60008060408385031215611ec257600080fd5b611ecb83611cb1565b915060208301358015158114611ee057600080fd5b809150509250929050565b60008060008060808587031215611f0157600080fd5b611f0a85611cb1565b9350611f1860208601611cb1565b925060408501359150606085013567ffffffffffffffff811115611f3b57600080fd5b8501601f81018713611f4c57600080fd5b611f5b87823560208401611de0565b91505092959194509250565b60008060408385031215611f7a57600080fd5b50508035926020909101359150565b60008060408385031215611f9c57600080fd5b611fa583611cb1565b9150611fb360208401611cb1565b90509250929050565b600181811c90821680611fd057607f821691505b60208210811415611ff157634e487b7160e01b600052602260045260246000fd5b50919050565b634e487b7160e01b600052601160045260246000fd5b60008282101561201f5761201f611ff7565b500390565b6000821982111561203757612037611ff7565b500190565b634e487b7160e01b600052603260045260246000fd5b600060001982141561206657612066611ff7565b5060010190565b6020808252602e908201527f4552433732313a2063616c6c6572206973206e6f7420746f6b656e206f776e6560408201526d1c881b9bdc88185c1c1c9bdd995960921b606082015260800190565b600083516120cd818460208801611c2d565b8351908301906120e1818360208801611c2d565b01949350505050565b60208082526024908201527f5072696365206d75737420626520657175616c20746f206c697374696e6720706040820152637269636560e01b606082015260800190565b8681526001600160a01b038681166020830152851660408201526060810184905260c06080820181905260009061216790830185611c59565b905082151560a0830152979650505050505050565b60208082526032908201527f4552433732313a207472616e7366657220746f206e6f6e20455243373231526560408201527131b2b4bb32b91034b6b83632b6b2b73a32b960711b606082015260800190565b6001600160a01b038581168252841660208201526040810183905260806060820181905260009061220190830184611c59565b9695505050505050565b60006020828403121561221d57600080fd5b8151610d2681611bfa565b634e487b7160e01b600052601260045260246000fd5b60008261224d5761224d612228565b500490565b60008261226157612261612228565b50069056fea264697066735822122055eed28c7c8ff995a60431387e17349f1d2ad90fc5a7c7a74292a239c8bad4b164736f6c63430008090033",
  "linkReferences": {},
  "deployedLinkReferences": {}
}